{
  "_format": "hh-sol-artifact-1",
  "contractName": "MyNFT",
  "sourceName": "contracts/MyNFT.sol",
  "abi": [
    {
      "inputs": [],
      "stateMutability": "nonpayable",
      "type": "constructor"
    },
    {
      "anonymous": false,
      "inputs": [
        {
          "indexed": true,
          "internalType": "address",
          "name": "owner",
          "type": "address"
        },
        {
          "indexed": true,
          "internalType": "address",
          "name": "approved",
          "type": "address"
        },
        {
          "indexed": true,
          "internalType": "uint256",
          "name": "tokenId",
          "type": "uint256"
        }
      ],
      "name": "Approval",
      "type": "event"
    },
    {
      "anonymous": false,
      "inputs": [
        {
          "indexed": true,
          "internalType": "address",
          "name": "owner",
          "type": "address"
        },
        {
          "indexed": true,
          "internalType": "address",
          "name": "operator",
          "type": "address"
        },
        {
          "indexed": false,
          "internalType": "bool",
          "name": "approved",
          "type": "bool"
        }
      ],
      "name": "ApprovalForAll",
      "type": "event"
    },
    {
      "anonymous": false,
      "inputs": [
        {
          "indexed": true,
          "internalType": "uint256",
          "name": "tokenId",
          "type": "uint256"
        },
        {
          "indexed": false,
          "internalType": "uint32",
          "name": "sheepBlood",
          "type": "uint32"
        },
        {
          "indexed": false,
          "internalType": "uint32",
          "name": "sheepPower",
          "type": "uint32"
        },
        {
          "indexed": false,
          "internalType": "uint32",
          "name": "wolfBlood",
          "type": "uint32"
        },
        {
          "indexed": false,
          "internalType": "uint32",
          "name": "wolfPower",
          "type": "uint32"
        },
        {
          "indexed": false,
          "internalType": "uint128",
          "name": "roleId",
          "type": "uint128"
        }
      ],
      "name": "SyncBlood",
      "type": "event"
    },
    {
      "anonymous": false,
      "inputs": [
        {
          "indexed": true,
          "internalType": "address",
          "name": "from",
          "type": "address"
        },
        {
          "indexed": true,
          "internalType": "address",
          "name": "to",
          "type": "address"
        },
        {
          "indexed": true,
          "internalType": "uint256",
          "name": "tokenId",
          "type": "uint256"
        }
      ],
      "name": "Transfer",
      "type": "event"
    },
    {
      "inputs": [],
      "name": "admin",
      "outputs": [
        {
          "internalType": "address",
          "name": "",
          "type": "address"
        }
      ],
      "stateMutability": "view",
      "type": "function"
    },
    {
      "inputs": [
        {
          "internalType": "address",
          "name": "to",
          "type": "address"
        },
        {
          "internalType": "uint256",
          "name": "tokenId",
          "type": "uint256"
        }
      ],
      "name": "approve",
      "outputs": [],
      "stateMutability": "nonpayable",
      "type": "function"
    },
    {
      "inputs": [
        {
          "internalType": "uint256",
          "name": "tokenId",
          "type": "uint256"
        }
      ],
      "name": "attack",
      "outputs": [],
      "stateMutability": "nonpayable",
      "type": "function"
    },
    {
      "inputs": [
        {
          "internalType": "address",
          "name": "owner",
          "type": "address"
        }
      ],
      "name": "balanceOf",
      "outputs": [
        {
          "internalType": "uint256",
          "name": "",
          "type": "uint256"
        }
      ],
      "stateMutability": "view",
      "type": "function"
    },
    {
      "inputs": [
        {
          "internalType": "uint256",
          "name": "tokenId",
          "type": "uint256"
        }
      ],
      "name": "getApproved",
      "outputs": [
        {
          "internalType": "address",
          "name": "",
          "type": "address"
        }
      ],
      "stateMutability": "view",
      "type": "function"
    },
    {
      "inputs": [
        {
          "internalType": "string",
          "name": "lucky",
          "type": "string"
        },
        {
          "internalType": "string",
          "name": "lazy",
          "type": "string"
        },
        {
          "internalType": "string",
          "name": "beauty",
          "type": "string"
        }
      ],
      "name": "initial",
      "outputs": [],
      "stateMutability": "nonpayable",
      "type": "function"
    },
    {
      "inputs": [
        {
          "internalType": "address",
          "name": "owner",
          "type": "address"
        },
        {
          "internalType": "address",
          "name": "operator",
          "type": "address"
        }
      ],
      "name": "isApprovedForAll",
      "outputs": [
        {
          "internalType": "bool",
          "name": "",
          "type": "bool"
        }
      ],
      "stateMutability": "view",
      "type": "function"
    },
    {
      "inputs": [],
      "name": "last",
      "outputs": [
        {
          "components": [
            {
              "components": [
                {
                  "internalType": "uint32",
                  "name": "sheep_attack_power",
                  "type": "uint32"
                },
                {
                  "internalType": "uint32",
                  "name": "sheep_blood",
                  "type": "uint32"
                },
                {
                  "internalType": "uint32",
                  "name": "wolf_attack_power",
                  "type": "uint32"
                },
                {
                  "internalType": "uint32",
                  "name": "wolf_blood",
                  "type": "uint32"
                },
                {
                  "internalType": "uint128",
                  "name": "role_id",
                  "type": "uint128"
                }
              ],
              "internalType": "struct MyNFT.Status",
              "name": "status",
              "type": "tuple"
            },
            {
              "internalType": "uint256",
              "name": "tokenId",
              "type": "uint256"
            }
          ],
          "internalType": "struct MyNFT.Token",
          "name": "",
          "type": "tuple"
        }
      ],
      "stateMutability": "view",
      "type": "function"
    },
    {
      "inputs": [],
      "name": "name",
      "outputs": [
        {
          "internalType": "string",
          "name": "",
          "type": "string"
        }
      ],
      "stateMutability": "view",
      "type": "function"
    },
    {
      "inputs": [
        {
          "internalType": "uint256",
          "name": "tokenId",
          "type": "uint256"
        }
      ],
      "name": "ownerOf",
      "outputs": [
        {
          "internalType": "address",
          "name": "",
          "type": "address"
        }
      ],
      "stateMutability": "view",
      "type": "function"
    },
    {
      "inputs": [
        {
          "internalType": "uint256",
          "name": "",
          "type": "uint256"
        }
      ],
      "name": "roleUri",
      "outputs": [
        {
          "internalType": "string",
          "name": "",
          "type": "string"
        }
      ],
      "stateMutability": "view",
      "type": "function"
    },
    {
      "inputs": [
        {
          "internalType": "address",
          "name": "to",
          "type": "address"
        },
        {
          "internalType": "uint128",
          "name": "roleId",
          "type": "uint128"
        }
      ],
      "name": "safeMint",
      "outputs": [],
      "stateMutability": "payable",
      "type": "function"
    },
    {
      "inputs": [
        {
          "internalType": "address",
          "name": "from",
          "type": "address"
        },
        {
          "internalType": "address",
          "name": "to",
          "type": "address"
        },
        {
          "internalType": "uint256",
          "name": "tokenId",
          "type": "uint256"
        }
      ],
      "name": "safeTransferFrom",
      "outputs": [],
      "stateMutability": "nonpayable",
      "type": "function"
    },
    {
      "inputs": [
        {
          "internalType": "address",
          "name": "from",
          "type": "address"
        },
        {
          "internalType": "address",
          "name": "to",
          "type": "address"
        },
        {
          "internalType": "uint256",
          "name": "tokenId",
          "type": "uint256"
        },
        {
          "internalType": "bytes",
          "name": "data",
          "type": "bytes"
        }
      ],
      "name": "safeTransferFrom",
      "outputs": [],
      "stateMutability": "nonpayable",
      "type": "function"
    },
    {
      "inputs": [
        {
          "internalType": "address",
          "name": "operator",
          "type": "address"
        },
        {
          "internalType": "bool",
          "name": "approved",
          "type": "bool"
        }
      ],
      "name": "setApprovalForAll",
      "outputs": [],
      "stateMutability": "nonpayable",
      "type": "function"
    },
    {
      "inputs": [
        {
          "internalType": "bytes4",
          "name": "interfaceId",
          "type": "bytes4"
        }
      ],
      "name": "supportsInterface",
      "outputs": [
        {
          "internalType": "bool",
          "name": "",
          "type": "bool"
        }
      ],
      "stateMutability": "view",
      "type": "function"
    },
    {
      "inputs": [],
      "name": "symbol",
      "outputs": [
        {
          "internalType": "string",
          "name": "",
          "type": "string"
        }
      ],
      "stateMutability": "view",
      "type": "function"
    },
    {
      "inputs": [
        {
          "internalType": "uint256",
          "name": "index",
          "type": "uint256"
        }
      ],
      "name": "tokenByIndex",
      "outputs": [
        {
          "internalType": "uint256",
          "name": "",
          "type": "uint256"
        }
      ],
      "stateMutability": "view",
      "type": "function"
    },
    {
      "inputs": [
        {
          "internalType": "address",
          "name": "owner",
          "type": "address"
        },
        {
          "internalType": "uint256",
          "name": "index",
          "type": "uint256"
        }
      ],
      "name": "tokenOfOwnerByIndex",
      "outputs": [
        {
          "internalType": "uint256",
          "name": "",
          "type": "uint256"
        }
      ],
      "stateMutability": "view",
      "type": "function"
    },
    {
      "inputs": [
        {
          "internalType": "uint256",
          "name": "",
          "type": "uint256"
        }
      ],
      "name": "tokenStatus",
      "outputs": [
        {
          "internalType": "uint32",
          "name": "sheep_attack_power",
          "type": "uint32"
        },
        {
          "internalType": "uint32",
          "name": "sheep_blood",
          "type": "uint32"
        },
        {
          "internalType": "uint32",
          "name": "wolf_attack_power",
          "type": "uint32"
        },
        {
          "internalType": "uint32",
          "name": "wolf_blood",
          "type": "uint32"
        },
        {
          "internalType": "uint128",
          "name": "role_id",
          "type": "uint128"
        }
      ],
      "stateMutability": "view",
      "type": "function"
    },
    {
      "inputs": [
        {
          "internalType": "uint256",
          "name": "tokenId",
          "type": "uint256"
        }
      ],
      "name": "tokenURI",
      "outputs": [
        {
          "internalType": "string",
          "name": "",
          "type": "string"
        }
      ],
      "stateMutability": "view",
      "type": "function"
    },
    {
      "inputs": [],
      "name": "totalSupply",
      "outputs": [
        {
          "internalType": "uint256",
          "name": "",
          "type": "uint256"
        }
      ],
      "stateMutability": "view",
      "type": "function"
    },
    {
      "inputs": [
        {
          "internalType": "address",
          "name": "from",
          "type": "address"
        },
        {
          "internalType": "address",
          "name": "to",
          "type": "address"
        },
        {
          "internalType": "uint256",
          "name": "tokenId",
          "type": "uint256"
        }
      ],
      "name": "transferFrom",
      "outputs": [],
      "stateMutability": "nonpayable",
      "type": "function"
    }
  ],
  "bytecode": "0x60a06040523480156200001157600080fd5b506040518060400160405280600581526020017f427261776c0000000000000000000000000000000000000000000000000000008152506040518060400160405280600581526020017f427261776c00000000000000000000000000000000000000000000000000000081525081600090816200008f919062000358565b508060019081620000a1919062000358565b5050503373ffffffffffffffffffffffffffffffffffffffff1660808173ffffffffffffffffffffffffffffffffffffffff16815250506200043f565b600081519050919050565b7f4e487b7100000000000000000000000000000000000000000000000000000000600052604160045260246000fd5b7f4e487b7100000000000000000000000000000000000000000000000000000000600052602260045260246000fd5b600060028204905060018216806200016057607f821691505b60208210810362000176576200017562000118565b5b50919050565b60008190508160005260206000209050919050565b60006020601f8301049050919050565b600082821b905092915050565b600060088302620001e07fffffffffffffffffffffffffffffffffffffffffffffffffffffffffffffffff82620001a1565b620001ec8683620001a1565b95508019841693508086168417925050509392505050565b6000819050919050565b6000819050919050565b600062000239620002336200022d8462000204565b6200020e565b62000204565b9050919050565b6000819050919050565b620002558362000218565b6200026d620002648262000240565b848454620001ae565b825550505050565b600090565b6200028462000275565b620002918184846200024a565b505050565b5b81811015620002b957620002ad6000826200027a565b60018101905062000297565b5050565b601f8211156200030857620002d2816200017c565b620002dd8462000191565b81016020851015620002ed578190505b62000305620002fc8562000191565b83018262000296565b50505b505050565b600082821c905092915050565b60006200032d600019846008026200030d565b1980831691505092915050565b60006200034883836200031a565b9150826002028217905092915050565b6200036382620000de565b67ffffffffffffffff8111156200037f576200037e620000e9565b5b6200038b825462000147565b62000398828285620002bd565b600060209050601f831160018114620003d05760008415620003bb578287015190505b620003c785826200033a565b86555062000437565b601f198416620003e0866200017c565b60005b828110156200040a57848901518255600182019150602085019450602081019050620003e3565b868310156200042a578489015162000426601f8916826200031a565b8355505b6001600288020188555050505b505050505050565b6080516143226200046960003960008181610bf6015281816114fc015261173201526143226000f3fe6080604052600436106101405760003560e01c8063641dce09116100b6578063b88d4fde1161006f578063b88d4fde14610489578063c87b56dd146104b2578063d265c374146104ef578063d9905a1d14610518578063e985e9c514610555578063f851a4401461059257610140565b8063641dce091461037257806364dd891a1461038e57806370a08231146103b757806395d89b41146103f4578063a22cb4651461041f578063b01ce31f1461044857610140565b806323b872dd1161010857806323b872dd1461023e5780632f745c591461026757806342842e0e146102a457806347799da8146102cd5780634f6ccce7146102f85780636352211e1461033557610140565b806301ffc9a71461014557806306fdde0314610182578063081812fc146101ad578063095ea7b3146101ea57806318160ddd14610213575b600080fd5b34801561015157600080fd5b5061016c60048036038101906101679190612a0f565b6105bd565b6040516101799190612a57565b60405180910390f35b34801561018e57600080fd5b506101976105cf565b6040516101a49190612b02565b60405180910390f35b3480156101b957600080fd5b506101d460048036038101906101cf9190612b5a565b610661565b6040516101e19190612bc8565b60405180910390f35b3480156101f657600080fd5b50610211600480360381019061020c9190612c0f565b6106a7565b005b34801561021f57600080fd5b506102286107be565b6040516102359190612c5e565b60405180910390f35b34801561024a57600080fd5b5061026560048036038101906102609190612c79565b6107cb565b005b34801561027357600080fd5b5061028e60048036038101906102899190612c0f565b61082b565b60405161029b9190612c5e565b60405180910390f35b3480156102b057600080fd5b506102cb60048036038101906102c69190612c79565b6108d0565b005b3480156102d957600080fd5b506102e26108f0565b6040516102ef9190612dbc565b60405180910390f35b34801561030457600080fd5b5061031f600480360381019061031a9190612b5a565b610a40565b60405161032c9190612c5e565b60405180910390f35b34801561034157600080fd5b5061035c60048036038101906103579190612b5a565b610ab1565b6040516103699190612bc8565b60405180910390f35b61038c60048036038101906103879190612e03565b610b37565b005b34801561039a57600080fd5b506103b560048036038101906103b09190612b5a565b610e6a565b005b3480156103c357600080fd5b506103de60048036038101906103d99190612e43565b611174565b6040516103eb9190612c5e565b60405180910390f35b34801561040057600080fd5b5061040961122b565b6040516104169190612b02565b60405180910390f35b34801561042b57600080fd5b5061044660048036038101906104419190612e9c565b6112bd565b005b34801561045457600080fd5b5061046f600480360381019061046a9190612b5a565b6112d3565b604051610480959493929190612efa565b60405180910390f35b34801561049557600080fd5b506104b060048036038101906104ab9190613082565b611365565b005b3480156104be57600080fd5b506104d960048036038101906104d49190612b5a565b6113c7565b6040516104e69190612b02565b60405180910390f35b3480156104fb57600080fd5b50610516600480360381019061051191906131a6565b6114fa565b005b34801561052457600080fd5b5061053f600480360381019061053a9190612b5a565b6115f9565b60405161054c9190612b02565b60405180910390f35b34801561056157600080fd5b5061057c6004803603810190610577919061324d565b61169c565b6040516105899190612a57565b60405180910390f35b34801561059e57600080fd5b506105a7611730565b6040516105b49190612bc8565b60405180910390f35b60006105c882611754565b9050919050565b6060600080546105de906132bc565b80601f016020809104026020016040519081016040528092919081815260200182805461060a906132bc565b80156106575780601f1061062c57610100808354040283529160200191610657565b820191906000526020600020905b81548152906001019060200180831161063a57829003601f168201915b5050505050905090565b600061066c826117ce565b6004600083815260200190815260200160002060009054906101000a900473ffffffffffffffffffffffffffffffffffffffff169050919050565b60006106b282610ab1565b90508073ffffffffffffffffffffffffffffffffffffffff168373ffffffffffffffffffffffffffffffffffffffff1603610722576040517f08c379a00000000000000000000000000000000000000000000000000000000081526004016107199061335f565b60405180910390fd5b8073ffffffffffffffffffffffffffffffffffffffff16610741611819565b73ffffffffffffffffffffffffffffffffffffffff161480610770575061076f8161076a611819565b61169c565b5b6107af576040517f08c379a00000000000000000000000000000000000000000000000000000000081526004016107a6906133f1565b60405180910390fd5b6107b98383611821565b505050565b6000600980549050905090565b6107dc6107d6611819565b826118da565b61081b576040517f08c379a000000000000000000000000000000000000000000000000000000000815260040161081290613483565b60405180910390fd5b61082683838361196f565b505050565b600061083683611174565b8210610877576040517f08c379a000000000000000000000000000000000000000000000000000000000815260040161086e90613515565b60405180910390fd5b600760008473ffffffffffffffffffffffffffffffffffffffff1673ffffffffffffffffffffffffffffffffffffffff168152602001908152602001600020600083815260200190815260200160002054905092915050565b6108eb83838360405180602001604052806000815250611365565b505050565b6108f861292a565b6000339050600061090882611174565b905060006109228360018461091d9190613564565b61082b565b90506040518060400160405280600f60008481526020019081526020016000206040518060a00160405290816000820160009054906101000a900463ffffffff1663ffffffff1663ffffffff1681526020016000820160049054906101000a900463ffffffff1663ffffffff1663ffffffff1681526020016000820160089054906101000a900463ffffffff1663ffffffff1663ffffffff16815260200160008201600c9054906101000a900463ffffffff1663ffffffff1663ffffffff1681526020016000820160109054906101000a90046fffffffffffffffffffffffffffffffff166fffffffffffffffffffffffffffffffff166fffffffffffffffffffffffffffffffff1681525050815260200182815250935050505090565b6000610a4a6107be565b8210610a8b576040517f08c379a0000000000000000000000000000000000000000000000000000000008152600401610a829061360a565b60405180910390fd5b60098281548110610a9f57610a9e61362a565b5b90600052602060002001549050919050565b600080610abd83611c68565b9050600073ffffffffffffffffffffffffffffffffffffffff168173ffffffffffffffffffffffffffffffffffffffff1603610b2e576040517f08c379a0000000000000000000000000000000000000000000000000000000008152600401610b25906136a5565b60405180910390fd5b80915050919050565b6064341015610b7b576040517f08c379a0000000000000000000000000000000000000000000000000000000008152600401610b7290613711565b60405180910390fd5b6003816fffffffffffffffffffffffffffffffff1610610bd0576040517f08c379a0000000000000000000000000000000000000000000000000000000008152600401610bc79061377d565b60405180910390fd5b6000610bdc600b611ca5565b9050610be8600b611cb3565b610bf28382611cc9565b60007f000000000000000000000000000000000000000000000000000000000000000073ffffffffffffffffffffffffffffffffffffffff1634604051610c38906137ce565b60006040518083038185875af1925050503d8060008114610c75576040519150601f19603f3d011682016040523d82523d6000602084013e610c7a565b606091505b5050905080610cbe576040517f08c379a0000000000000000000000000000000000000000000000000000000008152600401610cb59061382f565b60405180910390fd5b60006040518060a00160405280610cd3611ce7565b63ffffffff168152602001606463ffffffff168152602001601e63ffffffff168152602001606463ffffffff168152602001856fffffffffffffffffffffffffffffffff168152509050827f700094928d61312d8921306632999776fb04a3977d793a02ea3b44c9c47d457e82602001518360000151846060015185604001518660800151604051610d69959493929190612efa565b60405180910390a280600f600085815260200190815260200160002060008201518160000160006101000a81548163ffffffff021916908363ffffffff16021790555060208201518160000160046101000a81548163ffffffff021916908363ffffffff16021790555060408201518160000160086101000a81548163ffffffff021916908363ffffffff160217905550606082015181600001600c6101000a81548163ffffffff021916908363ffffffff16021790555060808201518160000160106101000a8154816fffffffffffffffffffffffffffffffff02191690836fffffffffffffffffffffffffffffffff1602179055509050505050505050565b610e7433826118da565b610eb3576040517f08c379a0000000000000000000000000000000000000000000000000000000008152600401610eaa9061389b565b60405180910390fd5b6000600f6000838152602001908152602001600020905060008160000160049054906101000a900463ffffffff1663ffffffff1611610f27576040517f08c379a0000000000000000000000000000000000000000000000000000000008152600401610f1e9061392d565b60405180910390fd5b8060000160009054906101000a900463ffffffff1663ffffffff1681600001600c9054906101000a900463ffffffff1663ffffffff161115610fbd578060000160009054906101000a900463ffffffff1681600001600c8282829054906101000a900463ffffffff16610f9a919061394d565b92506101000a81548163ffffffff021916908363ffffffff160217905550610fe2565b600081600001600c6101000a81548163ffffffff021916908363ffffffff1602179055505b600081600001600c9054906101000a900463ffffffff1663ffffffff1611156110c0578060000160089054906101000a900463ffffffff1663ffffffff168160000160049054906101000a900463ffffffff1663ffffffff16116110695760008160000160046101000a81548163ffffffff021916908363ffffffff1602179055506110bf565b8060000160089054906101000a900463ffffffff168160000160048282829054906101000a900463ffffffff166110a0919061394d565b92506101000a81548163ffffffff021916908363ffffffff1602179055505b5b817f700094928d61312d8921306632999776fb04a3977d793a02ea3b44c9c47d457e8260000160049054906101000a900463ffffffff168360000160009054906101000a900463ffffffff1684600001600c9054906101000a900463ffffffff168560000160089054906101000a900463ffffffff168660000160109054906101000a90046fffffffffffffffffffffffffffffffff16604051611168959493929190612efa565b60405180910390a25050565b60008073ffffffffffffffffffffffffffffffffffffffff168273ffffffffffffffffffffffffffffffffffffffff16036111e4576040517f08c379a00000000000000000000000000000000000000000000000000000000081526004016111db906139f7565b60405180910390fd5b600360008373ffffffffffffffffffffffffffffffffffffffff1673ffffffffffffffffffffffffffffffffffffffff168152602001908152602001600020549050919050565b60606001805461123a906132bc565b80601f0160208091040260200160405190810160405280929190818152602001828054611266906132bc565b80156112b35780601f10611288576101008083540402835291602001916112b3565b820191906000526020600020905b81548152906001019060200180831161129657829003601f168201915b5050505050905090565b6112cf6112c8611819565b8383611d31565b5050565b600f6020528060005260406000206000915090508060000160009054906101000a900463ffffffff16908060000160049054906101000a900463ffffffff16908060000160089054906101000a900463ffffffff169080600001600c9054906101000a900463ffffffff16908060000160109054906101000a90046fffffffffffffffffffffffffffffffff16905085565b611376611370611819565b836118da565b6113b5576040517f08c379a00000000000000000000000000000000000000000000000000000000081526004016113ac90613483565b60405180910390fd5b6113c184848484611e9d565b50505050565b60606113d282611ef9565b611411576040517f08c379a000000000000000000000000000000000000000000000000000000000815260040161140890613a63565b60405180910390fd5b600c600f600084815260200190815260200160002060000160109054906101000a90046fffffffffffffffffffffffffffffffff166fffffffffffffffffffffffffffffffff16600381106114695761146861362a565b5b018054611475906132bc565b80601f01602080910402602001604051908101604052809291908181526020018280546114a1906132bc565b80156114ee5780601f106114c3576101008083540402835291602001916114ee565b820191906000526020600020905b8154815290600101906020018083116114d157829003601f168201915b50505050509050919050565b7f000000000000000000000000000000000000000000000000000000000000000073ffffffffffffffffffffffffffffffffffffffff163373ffffffffffffffffffffffffffffffffffffffff1614611588576040517f08c379a000000000000000000000000000000000000000000000000000000000815260040161157f90613acf565b60405180910390fd5b82600c60006003811061159e5761159d61362a565b5b0190816115ab9190613c9b565b5081600c6001600381106115c2576115c161362a565b5b0190816115cf9190613c9b565b5080600c6002600381106115e6576115e561362a565b5b0190816115f39190613c9b565b50505050565b600c816003811061160957600080fd5b01600091509050805461161b906132bc565b80601f0160208091040260200160405190810160405280929190818152602001828054611647906132bc565b80156116945780601f1061166957610100808354040283529160200191611694565b820191906000526020600020905b81548152906001019060200180831161167757829003601f168201915b505050505081565b6000600560008473ffffffffffffffffffffffffffffffffffffffff1673ffffffffffffffffffffffffffffffffffffffff16815260200190815260200160002060008373ffffffffffffffffffffffffffffffffffffffff1673ffffffffffffffffffffffffffffffffffffffff16815260200190815260200160002060009054906101000a900460ff16905092915050565b7f000000000000000000000000000000000000000000000000000000000000000081565b60007f780e9d63000000000000000000000000000000000000000000000000000000007bffffffffffffffffffffffffffffffffffffffffffffffffffffffff1916827bffffffffffffffffffffffffffffffffffffffffffffffffffffffff191614806117c757506117c682611f3a565b5b9050919050565b6117d781611ef9565b611816576040517f08c379a000000000000000000000000000000000000000000000000000000000815260040161180d906136a5565b60405180910390fd5b50565b600033905090565b816004600083815260200190815260200160002060006101000a81548173ffffffffffffffffffffffffffffffffffffffff021916908373ffffffffffffffffffffffffffffffffffffffff160217905550808273ffffffffffffffffffffffffffffffffffffffff1661189483610ab1565b73ffffffffffffffffffffffffffffffffffffffff167f8c5be1e5ebec7d5bd14f71427d1e84f3dd0314c0f7b2291e5b200ac8c7c3b92560405160405180910390a45050565b6000806118e683610ab1565b90508073ffffffffffffffffffffffffffffffffffffffff168473ffffffffffffffffffffffffffffffffffffffff1614806119285750611927818561169c565b5b8061196657508373ffffffffffffffffffffffffffffffffffffffff1661194e84610661565b73ffffffffffffffffffffffffffffffffffffffff16145b91505092915050565b8273ffffffffffffffffffffffffffffffffffffffff1661198f82610ab1565b73ffffffffffffffffffffffffffffffffffffffff16146119e5576040517f08c379a00000000000000000000000000000000000000000000000000000000081526004016119dc90613ddf565b60405180910390fd5b600073ffffffffffffffffffffffffffffffffffffffff168273ffffffffffffffffffffffffffffffffffffffff1603611a54576040517f08c379a0000000000000000000000000000000000000000000000000000000008152600401611a4b90613e71565b60405180910390fd5b611a61838383600161201c565b8273ffffffffffffffffffffffffffffffffffffffff16611a8182610ab1565b73ffffffffffffffffffffffffffffffffffffffff1614611ad7576040517f08c379a0000000000000000000000000000000000000000000000000000000008152600401611ace90613ddf565b60405180910390fd5b6004600082815260200190815260200160002060006101000a81549073ffffffffffffffffffffffffffffffffffffffff02191690556001600360008573ffffffffffffffffffffffffffffffffffffffff1673ffffffffffffffffffffffffffffffffffffffff168152602001908152602001600020600082825403925050819055506001600360008473ffffffffffffffffffffffffffffffffffffffff1673ffffffffffffffffffffffffffffffffffffffff16815260200190815260200160002060008282540192505081905550816002600083815260200190815260200160002060006101000a81548173ffffffffffffffffffffffffffffffffffffffff021916908373ffffffffffffffffffffffffffffffffffffffff160217905550808273ffffffffffffffffffffffffffffffffffffffff168473ffffffffffffffffffffffffffffffffffffffff167fddf252ad1be2c89b69c2b068fc378daa952ba7f163c4a11628f55a4df523b3ef60405160405180910390a4611c63838383600161202e565b505050565b60006002600083815260200190815260200160002060009054906101000a900473ffffffffffffffffffffffffffffffffffffffff169050919050565b600081600001549050919050565b6001816000016000828254019250508190555050565b611ce3828260405180602001604052806000815250612034565b5050565b60006014804244604051602001611cff929190613eb2565b6040516020818303038152906040528051906020012060001c611d229190613f0d565b611d2c9190613f3e565b905090565b8173ffffffffffffffffffffffffffffffffffffffff168373ffffffffffffffffffffffffffffffffffffffff1603611d9f576040517f08c379a0000000000000000000000000000000000000000000000000000000008152600401611d9690613fbe565b60405180910390fd5b80600560008573ffffffffffffffffffffffffffffffffffffffff1673ffffffffffffffffffffffffffffffffffffffff16815260200190815260200160002060008473ffffffffffffffffffffffffffffffffffffffff1673ffffffffffffffffffffffffffffffffffffffff16815260200190815260200160002060006101000a81548160ff0219169083151502179055508173ffffffffffffffffffffffffffffffffffffffff168373ffffffffffffffffffffffffffffffffffffffff167f17307eab39ab6107e8899845ad3d59bd9653f200f220920489ca2b5937696c3183604051611e909190612a57565b60405180910390a3505050565b611ea884848461196f565b611eb48484848461208f565b611ef3576040517f08c379a0000000000000000000000000000000000000000000000000000000008152600401611eea90614050565b60405180910390fd5b50505050565b60008073ffffffffffffffffffffffffffffffffffffffff16611f1b83611c68565b73ffffffffffffffffffffffffffffffffffffffff1614159050919050565b60007f80ac58cd000000000000000000000000000000000000000000000000000000007bffffffffffffffffffffffffffffffffffffffffffffffffffffffff1916827bffffffffffffffffffffffffffffffffffffffffffffffffffffffff1916148061200557507f5b5e139f000000000000000000000000000000000000000000000000000000007bffffffffffffffffffffffffffffffffffffffffffffffffffffffff1916827bffffffffffffffffffffffffffffffffffffffffffffffffffffffff1916145b80612015575061201482612216565b5b9050919050565b61202884848484612280565b50505050565b50505050565b61203e83836123de565b61204b600084848461208f565b61208a576040517f08c379a000000000000000000000000000000000000000000000000000000000815260040161208190614050565b60405180910390fd5b505050565b60006120b08473ffffffffffffffffffffffffffffffffffffffff166125fb565b15612209578373ffffffffffffffffffffffffffffffffffffffff1663150b7a026120d9611819565b8786866040518563ffffffff1660e01b81526004016120fb94939291906140c5565b6020604051808303816000875af192505050801561213757506040513d601f19601f820116820180604052508101906121349190614126565b60015b6121b9573d8060008114612167576040519150601f19603f3d011682016040523d82523d6000602084013e61216c565b606091505b5060008151036121b1576040517f08c379a00000000000000000000000000000000000000000000000000000000081526004016121a890614050565b60405180910390fd5b805181602001fd5b63150b7a0260e01b7bffffffffffffffffffffffffffffffffffffffffffffffffffffffff1916817bffffffffffffffffffffffffffffffffffffffffffffffffffffffff19161491505061220e565b600190505b949350505050565b60007f01ffc9a7000000000000000000000000000000000000000000000000000000007bffffffffffffffffffffffffffffffffffffffffffffffffffffffff1916827bffffffffffffffffffffffffffffffffffffffffffffffffffffffff1916149050919050565b61228c8484848461261e565b60018111156122d0576040517f08c379a00000000000000000000000000000000000000000000000000000000081526004016122c7906141c5565b60405180910390fd5b6000829050600073ffffffffffffffffffffffffffffffffffffffff168573ffffffffffffffffffffffffffffffffffffffff16036123175761231281612624565b612356565b8373ffffffffffffffffffffffffffffffffffffffff168573ffffffffffffffffffffffffffffffffffffffff161461235557612354858261266d565b5b5b600073ffffffffffffffffffffffffffffffffffffffff168473ffffffffffffffffffffffffffffffffffffffff160361239857612393816127da565b6123d7565b8473ffffffffffffffffffffffffffffffffffffffff168473ffffffffffffffffffffffffffffffffffffffff16146123d6576123d584826128ab565b5b5b5050505050565b600073ffffffffffffffffffffffffffffffffffffffff168273ffffffffffffffffffffffffffffffffffffffff160361244d576040517f08c379a000000000000000000000000000000000000000000000000000000000815260040161244490614231565b60405180910390fd5b61245681611ef9565b15612496576040517f08c379a000000000000000000000000000000000000000000000000000000000815260040161248d9061429d565b60405180910390fd5b6124a460008383600161201c565b6124ad81611ef9565b156124ed576040517f08c379a00000000000000000000000000000000000000000000000000000000081526004016124e49061429d565b60405180910390fd5b6001600360008473ffffffffffffffffffffffffffffffffffffffff1673ffffffffffffffffffffffffffffffffffffffff16815260200190815260200160002060008282540192505081905550816002600083815260200190815260200160002060006101000a81548173ffffffffffffffffffffffffffffffffffffffff021916908373ffffffffffffffffffffffffffffffffffffffff160217905550808273ffffffffffffffffffffffffffffffffffffffff16600073ffffffffffffffffffffffffffffffffffffffff167fddf252ad1be2c89b69c2b068fc378daa952ba7f163c4a11628f55a4df523b3ef60405160405180910390a46125f760008383600161202e565b5050565b6000808273ffffffffffffffffffffffffffffffffffffffff163b119050919050565b50505050565b600980549050600a600083815260200190815260200160002081905550600981908060018154018082558091505060019003906000526020600020016000909190919091505550565b6000600161267a84611174565b6126849190613564565b9050600060086000848152602001908152602001600020549050818114612769576000600760008673ffffffffffffffffffffffffffffffffffffffff1673ffffffffffffffffffffffffffffffffffffffff168152602001908152602001600020600084815260200190815260200160002054905080600760008773ffffffffffffffffffffffffffffffffffffffff1673ffffffffffffffffffffffffffffffffffffffff168152602001908152602001600020600084815260200190815260200160002081905550816008600083815260200190815260200160002081905550505b6008600084815260200190815260200160002060009055600760008573ffffffffffffffffffffffffffffffffffffffff1673ffffffffffffffffffffffffffffffffffffffff16815260200190815260200160002060008381526020019081526020016000206000905550505050565b600060016009805490506127ee9190613564565b90506000600a600084815260200190815260200160002054905060006009838154811061281e5761281d61362a565b5b9060005260206000200154905080600983815481106128405761283f61362a565b5b906000526020600020018190555081600a600083815260200190815260200160002081905550600a600085815260200190815260200160002060009055600980548061288f5761288e6142bd565b5b6001900381819060005260206000200160009055905550505050565b60006128b683611174565b905081600760008573ffffffffffffffffffffffffffffffffffffffff1673ffffffffffffffffffffffffffffffffffffffff168152602001908152602001600020600083815260200190815260200160002081905550806008600084815260200190815260200160002081905550505050565b604051806040016040528061293d61294a565b8152602001600081525090565b6040518060a00160405280600063ffffffff168152602001600063ffffffff168152602001600063ffffffff168152602001600063ffffffff16815260200160006fffffffffffffffffffffffffffffffff1681525090565b6000604051905090565b600080fd5b600080fd5b60007fffffffff0000000000000000000000000000000000000000000000000000000082169050919050565b6129ec816129b7565b81146129f757600080fd5b50565b600081359050612a09816129e3565b92915050565b600060208284031215612a2557612a246129ad565b5b6000612a33848285016129fa565b91505092915050565b60008115159050919050565b612a5181612a3c565b82525050565b6000602082019050612a6c6000830184612a48565b92915050565b600081519050919050565b600082825260208201905092915050565b60005b83811015612aac578082015181840152602081019050612a91565b60008484015250505050565b6000601f19601f8301169050919050565b6000612ad482612a72565b612ade8185612a7d565b9350612aee818560208601612a8e565b612af781612ab8565b840191505092915050565b60006020820190508181036000830152612b1c8184612ac9565b905092915050565b6000819050919050565b612b3781612b24565b8114612b4257600080fd5b50565b600081359050612b5481612b2e565b92915050565b600060208284031215612b7057612b6f6129ad565b5b6000612b7e84828501612b45565b91505092915050565b600073ffffffffffffffffffffffffffffffffffffffff82169050919050565b6000612bb282612b87565b9050919050565b612bc281612ba7565b82525050565b6000602082019050612bdd6000830184612bb9565b92915050565b612bec81612ba7565b8114612bf757600080fd5b50565b600081359050612c0981612be3565b92915050565b60008060408385031215612c2657612c256129ad565b5b6000612c3485828601612bfa565b9250506020612c4585828601612b45565b9150509250929050565b612c5881612b24565b82525050565b6000602082019050612c736000830184612c4f565b92915050565b600080600060608486031215612c9257612c916129ad565b5b6000612ca086828701612bfa565b9350506020612cb186828701612bfa565b9250506040612cc286828701612b45565b9150509250925092565b600063ffffffff82169050919050565b612ce581612ccc565b82525050565b60006fffffffffffffffffffffffffffffffff82169050919050565b612d1081612ceb565b82525050565b60a082016000820151612d2c6000850182612cdc565b506020820151612d3f6020850182612cdc565b506040820151612d526040850182612cdc565b506060820151612d656060850182612cdc565b506080820151612d786080850182612d07565b50505050565b612d8781612b24565b82525050565b60c082016000820151612da36000850182612d16565b506020820151612db660a0850182612d7e565b50505050565b600060c082019050612dd16000830184612d8d565b92915050565b612de081612ceb565b8114612deb57600080fd5b50565b600081359050612dfd81612dd7565b92915050565b60008060408385031215612e1a57612e196129ad565b5b6000612e2885828601612bfa565b9250506020612e3985828601612dee565b9150509250929050565b600060208284031215612e5957612e586129ad565b5b6000612e6784828501612bfa565b91505092915050565b612e7981612a3c565b8114612e8457600080fd5b50565b600081359050612e9681612e70565b92915050565b60008060408385031215612eb357612eb26129ad565b5b6000612ec185828601612bfa565b9250506020612ed285828601612e87565b9150509250929050565b612ee581612ccc565b82525050565b612ef481612ceb565b82525050565b600060a082019050612f0f6000830188612edc565b612f1c6020830187612edc565b612f296040830186612edc565b612f366060830185612edc565b612f436080830184612eeb565b9695505050505050565b600080fd5b600080fd5b7f4e487b7100000000000000000000000000000000000000000000000000000000600052604160045260246000fd5b612f8f82612ab8565b810181811067ffffffffffffffff82111715612fae57612fad612f57565b5b80604052505050565b6000612fc16129a3565b9050612fcd8282612f86565b919050565b600067ffffffffffffffff821115612fed57612fec612f57565b5b612ff682612ab8565b9050602081019050919050565b82818337600083830152505050565b600061302561302084612fd2565b612fb7565b90508281526020810184848401111561304157613040612f52565b5b61304c848285613003565b509392505050565b600082601f83011261306957613068612f4d565b5b8135613079848260208601613012565b91505092915050565b6000806000806080858703121561309c5761309b6129ad565b5b60006130aa87828801612bfa565b94505060206130bb87828801612bfa565b93505060406130cc87828801612b45565b925050606085013567ffffffffffffffff8111156130ed576130ec6129b2565b5b6130f987828801613054565b91505092959194509250565b600067ffffffffffffffff8211156131205761311f612f57565b5b61312982612ab8565b9050602081019050919050565b600061314961314484613105565b612fb7565b90508281526020810184848401111561316557613164612f52565b5b613170848285613003565b509392505050565b600082601f83011261318d5761318c612f4d565b5b813561319d848260208601613136565b91505092915050565b6000806000606084860312156131bf576131be6129ad565b5b600084013567ffffffffffffffff8111156131dd576131dc6129b2565b5b6131e986828701613178565b935050602084013567ffffffffffffffff81111561320a576132096129b2565b5b61321686828701613178565b925050604084013567ffffffffffffffff811115613237576132366129b2565b5b61324386828701613178565b9150509250925092565b60008060408385031215613264576132636129ad565b5b600061327285828601612bfa565b925050602061328385828601612bfa565b9150509250929050565b7f4e487b7100000000000000000000000000000000000000000000000000000000600052602260045260246000fd5b600060028204905060018216806132d457607f821691505b6020821081036132e7576132e661328d565b5b50919050565b7f4552433732313a20617070726f76616c20746f2063757272656e74206f776e6560008201527f7200000000000000000000000000000000000000000000000000000000000000602082015250565b6000613349602183612a7d565b9150613354826132ed565b604082019050919050565b600060208201905081810360008301526133788161333c565b9050919050565b7f4552433732313a20617070726f76652063616c6c6572206973206e6f7420746f60008201527f6b656e206f776e6572206f7220617070726f76656420666f7220616c6c000000602082015250565b60006133db603d83612a7d565b91506133e68261337f565b604082019050919050565b6000602082019050818103600083015261340a816133ce565b9050919050565b7f4552433732313a2063616c6c6572206973206e6f7420746f6b656e206f776e6560008201527f72206f7220617070726f76656400000000000000000000000000000000000000602082015250565b600061346d602d83612a7d565b915061347882613411565b604082019050919050565b6000602082019050818103600083015261349c81613460565b9050919050565b7f455243373231456e756d657261626c653a206f776e657220696e646578206f7560008201527f74206f6620626f756e6473000000000000000000000000000000000000000000602082015250565b60006134ff602b83612a7d565b915061350a826134a3565b604082019050919050565b6000602082019050818103600083015261352e816134f2565b9050919050565b7f4e487b7100000000000000000000000000000000000000000000000000000000600052601160045260246000fd5b600061356f82612b24565b915061357a83612b24565b925082820390508181111561359257613591613535565b5b92915050565b7f455243373231456e756d657261626c653a20676c6f62616c20696e646578206f60008201527f7574206f6620626f756e64730000000000000000000000000000000000000000602082015250565b60006135f4602c83612a7d565b91506135ff82613598565b604082019050919050565b60006020820190508181036000830152613623816135e7565b9050919050565b7f4e487b7100000000000000000000000000000000000000000000000000000000600052603260045260246000fd5b7f4552433732313a20696e76616c696420746f6b656e2049440000000000000000600082015250565b600061368f601883612a7d565b915061369a82613659565b602082019050919050565b600060208201905081810360008301526136be81613682565b9050919050565b7f496e73756666696369656e7420657468657220616d6f756e7400000000000000600082015250565b60006136fb601983612a7d565b9150613706826136c5565b602082019050919050565b6000602082019050818103600083015261372a816136ee565b9050919050565b7f556e7370706f7274656420726f6c650000000000000000000000000000000000600082015250565b6000613767600f83612a7d565b915061377282613731565b602082019050919050565b600060208201905081810360008301526137968161375a565b9050919050565b600081905092915050565b50565b60006137b860008361379d565b91506137c3826137a8565b600082019050919050565b60006137d9826137ab565b9150819050919050565b7f74616e73666572206661696c6564000000000000000000000000000000000000600082015250565b6000613819600e83612a7d565b9150613824826137e3565b602082019050919050565b600060208201905081810360008301526138488161380c565b9050919050565b7f6e6f7420617574686f72697a6564000000000000000000000000000000000000600082015250565b6000613885600e83612a7d565b91506138908261384f565b602082019050919050565b600060208201905081810360008301526138b481613878565b9050919050565b7f736865657020697320646561642c63616e206e6f742061747461636b20776f6c60008201527f6600000000000000000000000000000000000000000000000000000000000000602082015250565b6000613917602183612a7d565b9150613922826138bb565b604082019050919050565b600060208201905081810360008301526139468161390a565b9050919050565b600061395882612ccc565b915061396383612ccc565b9250828203905063ffffffff81111561397f5761397e613535565b5b92915050565b7f4552433732313a2061646472657373207a65726f206973206e6f74206120766160008201527f6c6964206f776e65720000000000000000000000000000000000000000000000602082015250565b60006139e1602983612a7d565b91506139ec82613985565b604082019050919050565b60006020820190508181036000830152613a10816139d4565b9050919050565b7f2055524920717565727920666f72206e6f6e6578697374656e7420746f6b656e600082015250565b6000613a4d602083612a7d565b9150613a5882613a17565b602082019050919050565b60006020820190508181036000830152613a7c81613a40565b9050919050565b7f4e6f20617574686f72697a6174696f6e00000000000000000000000000000000600082015250565b6000613ab9601083612a7d565b9150613ac482613a83565b602082019050919050565b60006020820190508181036000830152613ae881613aac565b9050919050565b60008190508160005260206000209050919050565b60006020601f8301049050919050565b600082821b905092915050565b600060088302613b517fffffffffffffffffffffffffffffffffffffffffffffffffffffffffffffffff82613b14565b613b5b8683613b14565b95508019841693508086168417925050509392505050565b6000819050919050565b6000613b98613b93613b8e84612b24565b613b73565b612b24565b9050919050565b6000819050919050565b613bb283613b7d565b613bc6613bbe82613b9f565b848454613b21565b825550505050565b600090565b613bdb613bce565b613be6818484613ba9565b505050565b5b81811015613c0a57613bff600082613bd3565b600181019050613bec565b5050565b601f821115613c4f57613c2081613aef565b613c2984613b04565b81016020851015613c38578190505b613c4c613c4485613b04565b830182613beb565b50505b505050565b600082821c905092915050565b6000613c7260001984600802613c54565b1980831691505092915050565b6000613c8b8383613c61565b9150826002028217905092915050565b613ca482612a72565b67ffffffffffffffff811115613cbd57613cbc612f57565b5b613cc782546132bc565b613cd2828285613c0e565b600060209050601f831160018114613d055760008415613cf3578287015190505b613cfd8582613c7f565b865550613d65565b601f198416613d1386613aef565b60005b82811015613d3b57848901518255600182019150602085019450602081019050613d16565b86831015613d585784890151613d54601f891682613c61565b8355505b6001600288020188555050505b505050505050565b7f4552433732313a207472616e736665722066726f6d20696e636f72726563742060008201527f6f776e6572000000000000000000000000000000000000000000000000000000602082015250565b6000613dc9602583612a7d565b9150613dd482613d6d565b604082019050919050565b60006020820190508181036000830152613df881613dbc565b9050919050565b7f4552433732313a207472616e7366657220746f20746865207a65726f2061646460008201527f7265737300000000000000000000000000000000000000000000000000000000602082015250565b6000613e5b602483612a7d565b9150613e6682613dff565b604082019050919050565b60006020820190508181036000830152613e8a81613e4e565b9050919050565b6000819050919050565b613eac613ea782612b24565b613e91565b82525050565b6000613ebe8285613e9b565b602082019150613ece8284613e9b565b6020820191508190509392505050565b7f4e487b7100000000000000000000000000000000000000000000000000000000600052601260045260246000fd5b6000613f1882612b24565b9150613f2383612b24565b925082613f3357613f32613ede565b5b828206905092915050565b6000613f4982612b24565b9150613f5483612b24565b9250828201905080821115613f6c57613f6b613535565b5b92915050565b7f4552433732313a20617070726f766520746f2063616c6c657200000000000000600082015250565b6000613fa8601983612a7d565b9150613fb382613f72565b602082019050919050565b60006020820190508181036000830152613fd781613f9b565b9050919050565b7f4552433732313a207472616e7366657220746f206e6f6e20455243373231526560008201527f63656976657220696d706c656d656e7465720000000000000000000000000000602082015250565b600061403a603283612a7d565b915061404582613fde565b604082019050919050565b600060208201905081810360008301526140698161402d565b9050919050565b600081519050919050565b600082825260208201905092915050565b600061409782614070565b6140a1818561407b565b93506140b1818560208601612a8e565b6140ba81612ab8565b840191505092915050565b60006080820190506140da6000830187612bb9565b6140e76020830186612bb9565b6140f46040830185612c4f565b8181036060830152614106818461408c565b905095945050505050565b600081519050614120816129e3565b92915050565b60006020828403121561413c5761413b6129ad565b5b600061414a84828501614111565b91505092915050565b7f455243373231456e756d657261626c653a20636f6e736563757469766520747260008201527f616e7366657273206e6f7420737570706f727465640000000000000000000000602082015250565b60006141af603583612a7d565b91506141ba82614153565b604082019050919050565b600060208201905081810360008301526141de816141a2565b9050919050565b7f4552433732313a206d696e7420746f20746865207a65726f2061646472657373600082015250565b600061421b602083612a7d565b9150614226826141e5565b602082019050919050565b6000602082019050818103600083015261424a8161420e565b9050919050565b7f4552433732313a20746f6b656e20616c7265616479206d696e74656400000000600082015250565b6000614287601c83612a7d565b915061429282614251565b602082019050919050565b600060208201905081810360008301526142b68161427a565b9050919050565b7f4e487b7100000000000000000000000000000000000000000000000000000000600052603160045260246000fdfea2646970667358221220682f8e0dad565595d86a9470487d9de1fb27221f8349e4310f71017e1b23b0ec64736f6c63430008110033",
  "linkReferences": {},
  "deployedLinkReferences": {}
}